{
  "address": "0x55D50Ef6960f779B758F0E85A253927f3a02d306",
  "abi": [
    {
      "inputs": [
        {
          "internalType": "address",
          "name": "vrfCoordinatorV2",
          "type": "address"
        },
        {
          "internalType": "bytes32",
          "name": "gasLane",
          "type": "bytes32"
        },
        {
          "internalType": "uint64",
          "name": "subscriptionId",
          "type": "uint64"
        },
        {
          "internalType": "uint32",
          "name": "callbackGasLimit",
          "type": "uint32"
        }
      ],
      "stateMutability": "nonpayable",
      "type": "constructor"
    },
    {
      "inputs": [
        {
          "internalType": "address",
          "name": "have",
          "type": "address"
        },
        {
          "internalType": "address",
          "name": "want",
          "type": "address"
        }
      ],
      "name": "OnlyCoordinatorCanFulfill",
      "type": "error"
    },
    {
      "anonymous": false,
      "inputs": [
        {
          "indexed": true,
          "internalType": "uint256",
          "name": "requestId",
          "type": "uint256"
        }
      ],
      "name": "RequestedRandomNumber",
      "type": "event"
    },
    {
      "inputs": [],
      "name": "generateRandomNumber",
      "outputs": [],
      "stateMutability": "nonpayable",
      "type": "function"
    },
    {
      "inputs": [],
      "name": "getRandomNumber",
      "outputs": [
        {
          "internalType": "uint256",
          "name": "",
          "type": "uint256"
        }
      ],
      "stateMutability": "view",
      "type": "function"
    },
    {
      "inputs": [
        {
          "internalType": "uint256",
          "name": "requestId",
          "type": "uint256"
        },
        {
          "internalType": "uint256[]",
          "name": "randomWords",
          "type": "uint256[]"
        }
      ],
      "name": "rawFulfillRandomWords",
      "outputs": [],
      "stateMutability": "nonpayable",
      "type": "function"
    }
  ],
  "transactionHash": "0x5326442d64a2faad33f7481496a121b20f46e1587e7fc6764909870a95753728",
  "args": [
    "0x8103B0A8A00be2DDC778e6e7eaa21791Cd364625",
    "0x474e34a077df58807dbe9c96d3c009b23b3c6d0cce433e59bbf5b34f823bc56c",
    "2505",
    "500000"
  ],
  "numDeployments": 3,
  "solcInputHash": "0638551094802da5d400830e2e3436d7",
  "bytecode": "0x6101206040523480156200001257600080fd5b50604051620009f0380380620009f0833981810160405281019062000038919062000210565b838073ffffffffffffffffffffffffffffffffffffffff1660808173ffffffffffffffffffffffffffffffffffffffff1681525050508373ffffffffffffffffffffffffffffffffffffffff1660a08173ffffffffffffffffffffffffffffffffffffffff16815250508260e081815250508167ffffffffffffffff1660c08167ffffffffffffffff16815250508063ffffffff166101008163ffffffff16815250505050505062000282565b600080fd5b600073ffffffffffffffffffffffffffffffffffffffff82169050919050565b60006200011782620000ea565b9050919050565b62000129816200010a565b81146200013557600080fd5b50565b60008151905062000149816200011e565b92915050565b6000819050919050565b62000164816200014f565b81146200017057600080fd5b50565b600081519050620001848162000159565b92915050565b600067ffffffffffffffff82169050919050565b620001a9816200018a565b8114620001b557600080fd5b50565b600081519050620001c9816200019e565b92915050565b600063ffffffff82169050919050565b620001ea81620001cf565b8114620001f657600080fd5b50565b6000815190506200020a81620001df565b92915050565b600080600080608085870312156200022d576200022c620000e5565b5b60006200023d8782880162000138565b9450506020620002508782880162000173565b93505060406200026387828801620001b8565b92505060606200027687828801620001f9565b91505092959194509250565b60805160a05160c05160e05161010051610724620002cc60003960006101ce0152600061018a015260006101ab0152600061014e015260008181608c015260e001526107246000f3fe608060405234801561001057600080fd5b50600436106100415760003560e01c80631fe543e314610046578063773a115414610062578063dbdff2c11461006c575b600080fd5b610060600480360381019061005b9190610462565b61008a565b005b61006a61014a565b005b610074610284565b60405161008191906104cd565b60405180910390f35b7f000000000000000000000000000000000000000000000000000000000000000073ffffffffffffffffffffffffffffffffffffffff163373ffffffffffffffffffffffffffffffffffffffff161461013c57337f00000000000000000000000000000000000000000000000000000000000000006040517f1cf993f4000000000000000000000000000000000000000000000000000000008152600401610133929190610529565b60405180910390fd5b610146828261028d565b5050565b60007f000000000000000000000000000000000000000000000000000000000000000073ffffffffffffffffffffffffffffffffffffffff16635d3b1d307f00000000000000000000000000000000000000000000000000000000000000007f000000000000000000000000000000000000000000000000000000000000000060037f000000000000000000000000000000000000000000000000000000000000000060016040518663ffffffff1660e01b815260040161020f9594939291906105ca565b6020604051808303816000875af115801561022e573d6000803e3d6000fd5b505050506040513d601f19601f820116820180604052508101906102529190610632565b9050807f28a75f9a78cd502748cecc04795531fd051165f83e4be1270400ac7130873e2e60405160405180910390a250565b60008054905090565b6064816000815181106102a3576102a261065f565b5b60200260200101516102b591906106bd565b6000819055505050565b6000604051905090565b600080fd5b600080fd5b6000819050919050565b6102e6816102d3565b81146102f157600080fd5b50565b600081359050610303816102dd565b92915050565b600080fd5b6000601f19601f8301169050919050565b7f4e487b7100000000000000000000000000000000000000000000000000000000600052604160045260246000fd5b6103578261030e565b810181811067ffffffffffffffff821117156103765761037561031f565b5b80604052505050565b60006103896102bf565b9050610395828261034e565b919050565b600067ffffffffffffffff8211156103b5576103b461031f565b5b602082029050602081019050919050565b600080fd5b60006103de6103d98461039a565b61037f565b90508083825260208201905060208402830185811115610401576104006103c6565b5b835b8181101561042a578061041688826102f4565b845260208401935050602081019050610403565b5050509392505050565b600082601f83011261044957610448610309565b5b81356104598482602086016103cb565b91505092915050565b60008060408385031215610479576104786102c9565b5b6000610487858286016102f4565b925050602083013567ffffffffffffffff8111156104a8576104a76102ce565b5b6104b485828601610434565b9150509250929050565b6104c7816102d3565b82525050565b60006020820190506104e260008301846104be565b92915050565b600073ffffffffffffffffffffffffffffffffffffffff82169050919050565b6000610513826104e8565b9050919050565b61052381610508565b82525050565b600060408201905061053e600083018561051a565b61054b602083018461051a565b9392505050565b6000819050919050565b61056581610552565b82525050565b600067ffffffffffffffff82169050919050565b6105888161056b565b82525050565b600061ffff82169050919050565b6105a58161058e565b82525050565b600063ffffffff82169050919050565b6105c4816105ab565b82525050565b600060a0820190506105df600083018861055c565b6105ec602083018761057f565b6105f9604083018661059c565b61060660608301856105bb565b61061360808301846105bb565b9695505050505050565b60008151905061062c816102dd565b92915050565b600060208284031215610648576106476102c9565b5b60006106568482850161061d565b91505092915050565b7f4e487b7100000000000000000000000000000000000000000000000000000000600052603260045260246000fd5b7f4e487b7100000000000000000000000000000000000000000000000000000000600052601260045260246000fd5b60006106c8826102d3565b91506106d3836102d3565b9250826106e3576106e261068e565b5b82820690509291505056fea26469706673582212207df6abff981095cec7ba4df4f7f1884fa68495eab1b20883a9154915ad542f7b64736f6c63430008120033",
  "devdoc": {
    "kind": "dev",
    "methods": {},
    "version": 1
  },
  "userdoc": {
    "kind": "user",
    "methods": {},
    "version": 1
  },
  "storageLayout": {
    "storage": [
      {
        "astId": 180,
        "contract": "contracts/Airdrop.sol:Airdrop",
        "label": "randomNumber",
        "offset": 0,
        "slot": "0",
        "type": "t_uint256"
      }
    ],
    "types": {
      "t_uint256": {
        "encoding": "inplace",
        "label": "uint256",
        "numberOfBytes": "32"
      }
    }
  }
}