{
  "address": "0x878d2344F7fb0dE251878c85C9171d2Dc24c965d",
  "abi": [
    {
      "inputs": [
        {
          "internalType": "address",
          "name": "vrfCoordinatorV2",
          "type": "address"
        },
        {
          "internalType": "uint64",
          "name": "subscriptionId",
          "type": "uint64"
        },
        {
          "internalType": "bytes32",
          "name": "gasLane",
          "type": "bytes32"
        },
        {
          "internalType": "uint256",
          "name": "entranceFee",
          "type": "uint256"
        },
        {
          "internalType": "uint32",
          "name": "callbackGasLimit",
          "type": "uint32"
        }
      ],
      "stateMutability": "nonpayable",
      "type": "constructor"
    },
    {
      "inputs": [
        {
          "internalType": "address",
          "name": "have",
          "type": "address"
        },
        {
          "internalType": "address",
          "name": "want",
          "type": "address"
        }
      ],
      "name": "OnlyCoordinatorCanFulfill",
      "type": "error"
    },
    {
      "inputs": [],
      "name": "Raffle__RaffleNotOpen",
      "type": "error"
    },
    {
      "inputs": [],
      "name": "Raffle__SendMoreToEnterRaffle",
      "type": "error"
    },
    {
      "inputs": [],
      "name": "Raffle__TransferFailed",
      "type": "error"
    },
    {
      "anonymous": false,
      "inputs": [
        {
          "indexed": true,
          "internalType": "address",
          "name": "player",
          "type": "address"
        }
      ],
      "name": "RaffleEnter",
      "type": "event"
    },
    {
      "anonymous": false,
      "inputs": [
        {
          "indexed": true,
          "internalType": "uint256",
          "name": "requestId",
          "type": "uint256"
        }
      ],
      "name": "RequestedRaffleWinner",
      "type": "event"
    },
    {
      "anonymous": false,
      "inputs": [
        {
          "indexed": true,
          "internalType": "address",
          "name": "player",
          "type": "address"
        }
      ],
      "name": "WinnerPicked",
      "type": "event"
    },
    {
      "inputs": [],
      "name": "enterRaffle",
      "outputs": [],
      "stateMutability": "payable",
      "type": "function"
    },
    {
      "inputs": [],
      "name": "generateRandomNumber",
      "outputs": [],
      "stateMutability": "nonpayable",
      "type": "function"
    },
    {
      "inputs": [],
      "name": "getEntranceFee",
      "outputs": [
        {
          "internalType": "uint256",
          "name": "",
          "type": "uint256"
        }
      ],
      "stateMutability": "view",
      "type": "function"
    },
    {
      "inputs": [],
      "name": "getLastTimeStamp",
      "outputs": [
        {
          "internalType": "uint256",
          "name": "",
          "type": "uint256"
        }
      ],
      "stateMutability": "view",
      "type": "function"
    },
    {
      "inputs": [],
      "name": "getNumWords",
      "outputs": [
        {
          "internalType": "uint256",
          "name": "",
          "type": "uint256"
        }
      ],
      "stateMutability": "pure",
      "type": "function"
    },
    {
      "inputs": [],
      "name": "getNumberOfPlayers",
      "outputs": [
        {
          "internalType": "uint256",
          "name": "",
          "type": "uint256"
        }
      ],
      "stateMutability": "view",
      "type": "function"
    },
    {
      "inputs": [
        {
          "internalType": "uint256",
          "name": "index",
          "type": "uint256"
        }
      ],
      "name": "getPlayer",
      "outputs": [
        {
          "internalType": "address",
          "name": "",
          "type": "address"
        }
      ],
      "stateMutability": "view",
      "type": "function"
    },
    {
      "inputs": [],
      "name": "getRaffleState",
      "outputs": [
        {
          "internalType": "enum Raffle.RaffleState",
          "name": "",
          "type": "uint8"
        }
      ],
      "stateMutability": "view",
      "type": "function"
    },
    {
      "inputs": [],
      "name": "getRandomNumber",
      "outputs": [
        {
          "internalType": "uint256",
          "name": "",
          "type": "uint256"
        }
      ],
      "stateMutability": "view",
      "type": "function"
    },
    {
      "inputs": [],
      "name": "getRecentWinner",
      "outputs": [
        {
          "internalType": "address",
          "name": "",
          "type": "address"
        }
      ],
      "stateMutability": "view",
      "type": "function"
    },
    {
      "inputs": [],
      "name": "getRequestConfirmations",
      "outputs": [
        {
          "internalType": "uint256",
          "name": "",
          "type": "uint256"
        }
      ],
      "stateMutability": "pure",
      "type": "function"
    },
    {
      "inputs": [
        {
          "internalType": "uint256",
          "name": "requestId",
          "type": "uint256"
        },
        {
          "internalType": "uint256[]",
          "name": "randomWords",
          "type": "uint256[]"
        }
      ],
      "name": "rawFulfillRandomWords",
      "outputs": [],
      "stateMutability": "nonpayable",
      "type": "function"
    }
  ],
  "transactionHash": "0xa468d129fb0e3339d90dae1865b1e921a5cfa0e0ec25fb9a8481818777ca8a2a",
  "args": [
    "0x8103B0A8A00be2DDC778e6e7eaa21791Cd364625",
    "2505",
    "0x474e34a077df58807dbe9c96d3c009b23b3c6d0cce433e59bbf5b34f823bc56c",
    "10000000000000000",
    "500000"
  ],
  "numDeployments": 2,
  "solcInputHash": "e0f614f138ee1da7be9f2695b4afab42",
  "bytecode": "0x6101406040523480156200001257600080fd5b50604051620013383803806200133883398181016040528101906200003891906200028a565b848073ffffffffffffffffffffffffffffffffffffffff1660808173ffffffffffffffffffffffffffffffffffffffff1681525050508473ffffffffffffffffffffffffffffffffffffffff1660a08173ffffffffffffffffffffffffffffffffffffffff16815250508260e081815250508367ffffffffffffffff1660c08167ffffffffffffffff16815250508161012081815250506000600360006101000a81548160ff02191690836001811115620000f857620000f762000312565b5b0217905550426000819055508063ffffffff166101008163ffffffff1681525050505050505062000341565b600080fd5b600073ffffffffffffffffffffffffffffffffffffffff82169050919050565b6000620001568262000129565b9050919050565b620001688162000149565b81146200017457600080fd5b50565b60008151905062000188816200015d565b92915050565b600067ffffffffffffffff82169050919050565b620001ad816200018e565b8114620001b957600080fd5b50565b600081519050620001cd81620001a2565b92915050565b6000819050919050565b620001e881620001d3565b8114620001f457600080fd5b50565b6000815190506200020881620001dd565b92915050565b6000819050919050565b62000223816200020e565b81146200022f57600080fd5b50565b600081519050620002438162000218565b92915050565b600063ffffffff82169050919050565b620002648162000249565b81146200027057600080fd5b50565b600081519050620002848162000259565b92915050565b600080600080600060a08688031215620002a957620002a862000124565b5b6000620002b98882890162000177565b9550506020620002cc88828901620001bc565b9450506040620002df88828901620001f7565b9350506060620002f28882890162000232565b9250506080620003058882890162000273565b9150509295509295909350565b7f4e487b7100000000000000000000000000000000000000000000000000000000600052602160045260246000fd5b60805160a05160c05160e0516101005161012051610f996200039f6000396000818161028f015261038c015260006105ee015260006105aa015260006105cb0152600061056e0152600081816102cc01526103200152610f996000f3fe6080604052600436106100a75760003560e01c80635f1b0fd8116100645780635f1b0fd81461018b578063773a1154146101b6578063c1c244e8146101cd578063dbdff2c1146101f8578063e55ae4e814610223578063fd6673f514610260576100a7565b806309bc33a7146100ac578063115cbaf5146100d75780631fe543e3146101025780632cfcc5391461012b578063473f1ddc1461013557806353a2c19a14610160575b600080fd5b3480156100b857600080fd5b506100c161028b565b6040516100ce9190610a2d565b60405180910390f35b3480156100e357600080fd5b506100ec6102b3565b6040516100f99190610abf565b60405180910390f35b34801561010e57600080fd5b5061012960048036038101906101249190610c73565b6102ca565b005b61013361038a565b005b34801561014157600080fd5b5061014a6104f9565b6040516101579190610d10565b60405180910390f35b34801561016c57600080fd5b50610175610523565b6040516101829190610a2d565b60405180910390f35b34801561019757600080fd5b506101a0610532565b6040516101ad9190610a2d565b60405180910390f35b3480156101c257600080fd5b506101cb61053f565b005b3480156101d957600080fd5b506101e26106a4565b6040516101ef9190610a2d565b60405180910390f35b34801561020457600080fd5b5061020d6106ad565b60405161021a9190610a2d565b60405180910390f35b34801561022f57600080fd5b5061024a60048036038101906102459190610d2b565b6106b7565b6040516102579190610d10565b60405180910390f35b34801561026c57600080fd5b506102756106ff565b6040516102829190610a2d565b60405180910390f35b60007f0000000000000000000000000000000000000000000000000000000000000000905090565b6000600360009054906101000a900460ff16905090565b7f000000000000000000000000000000000000000000000000000000000000000073ffffffffffffffffffffffffffffffffffffffff163373ffffffffffffffffffffffffffffffffffffffff161461037c57337f00000000000000000000000000000000000000000000000000000000000000006040517f1cf993f4000000000000000000000000000000000000000000000000000000008152600401610373929190610d58565b60405180910390fd5b610386828261070c565b5050565b7f00000000000000000000000000000000000000000000000000000000000000003410156103e4576040517f3038c00a00000000000000000000000000000000000000000000000000000000815260040160405180910390fd5b600060018111156103f8576103f7610a48565b5b600360009054906101000a900460ff16600181111561041a57610419610a48565b5b14610451576040517fd24a271400000000000000000000000000000000000000000000000000000000815260040160405180910390fd5b6002339080600181540180825580915050600190039060005260206000200160009091909190916101000a81548173ffffffffffffffffffffffffffffffffffffffff021916908373ffffffffffffffffffffffffffffffffffffffff1602179055503373ffffffffffffffffffffffffffffffffffffffff167f0805e1d667bddb8a95f0f09880cf94f403fb596ce79928d9f29b74203ba284d460405160405180910390a2565b6000600160009054906101000a900473ffffffffffffffffffffffffffffffffffffffff16905090565b6000600163ffffffff16905090565b6000600361ffff16905090565b6001600360006101000a81548160ff0219169083600181111561056557610564610a48565b5b021790555060007f000000000000000000000000000000000000000000000000000000000000000073ffffffffffffffffffffffffffffffffffffffff16635d3b1d307f00000000000000000000000000000000000000000000000000000000000000007f000000000000000000000000000000000000000000000000000000000000000060037f000000000000000000000000000000000000000000000000000000000000000060016040518663ffffffff1660e01b815260040161062f959493929190610df9565b6020604051808303816000875af115801561064e573d6000803e3d6000fd5b505050506040513d601f19601f820116820180604052508101906106729190610e61565b9050807fcd6e45c8998311cab7e9d4385596cac867e20a0587194b954fa3a731c93ce78b60405160405180910390a250565b60008054905090565b6000600454905090565b6000600282815481106106cd576106cc610e8e565b5b9060005260206000200160009054906101000a900473ffffffffffffffffffffffffffffffffffffffff169050919050565b6000600280549050905090565b60006002805490508260008151811061072857610727610e8e565b5b602002602001015161073a9190610eec565b905060006002828154811061075257610751610e8e565b5b9060005260206000200160009054906101000a900473ffffffffffffffffffffffffffffffffffffffff16905080600160006101000a81548173ffffffffffffffffffffffffffffffffffffffff021916908373ffffffffffffffffffffffffffffffffffffffff160217905550600067ffffffffffffffff8111156107db576107da610b30565b5b6040519080825280602002602001820160405280156108095781602001602082028036833780820191505090505b506002908051906020019061081f92919061096d565b506000600360006101000a81548160ff0219169083600181111561084657610845610a48565b5b02179055504260008190555060008173ffffffffffffffffffffffffffffffffffffffff164760405161087890610f4e565b60006040518083038185875af1925050503d80600081146108b5576040519150601f19603f3d011682016040523d82523d6000602084013e6108ba565b606091505b50509050806108f5576040517fa1d04b3900000000000000000000000000000000000000000000000000000000815260040160405180910390fd5b60648460008151811061090b5761090a610e8e565b5b602002602001015161091d9190610eec565b6004819055508173ffffffffffffffffffffffffffffffffffffffff167f5b690ec4a06fe979403046eaeea5b3ce38524683c3001f662c8b5a829632f7df60405160405180910390a25050505050565b8280548282559060005260206000209081019282156109e6579160200282015b828111156109e55782518260006101000a81548173ffffffffffffffffffffffffffffffffffffffff021916908373ffffffffffffffffffffffffffffffffffffffff1602179055509160200191906001019061098d565b5b5090506109f391906109f7565b5090565b5b80821115610a105760008160009055506001016109f8565b5090565b6000819050919050565b610a2781610a14565b82525050565b6000602082019050610a426000830184610a1e565b92915050565b7f4e487b7100000000000000000000000000000000000000000000000000000000600052602160045260246000fd5b60028110610a8857610a87610a48565b5b50565b6000819050610a9982610a77565b919050565b6000610aa982610a8b565b9050919050565b610ab981610a9e565b82525050565b6000602082019050610ad46000830184610ab0565b92915050565b6000604051905090565b600080fd5b600080fd5b610af781610a14565b8114610b0257600080fd5b50565b600081359050610b1481610aee565b92915050565b600080fd5b6000601f19601f8301169050919050565b7f4e487b7100000000000000000000000000000000000000000000000000000000600052604160045260246000fd5b610b6882610b1f565b810181811067ffffffffffffffff82111715610b8757610b86610b30565b5b80604052505050565b6000610b9a610ada565b9050610ba68282610b5f565b919050565b600067ffffffffffffffff821115610bc657610bc5610b30565b5b602082029050602081019050919050565b600080fd5b6000610bef610bea84610bab565b610b90565b90508083825260208201905060208402830185811115610c1257610c11610bd7565b5b835b81811015610c3b5780610c278882610b05565b845260208401935050602081019050610c14565b5050509392505050565b600082601f830112610c5a57610c59610b1a565b5b8135610c6a848260208601610bdc565b91505092915050565b60008060408385031215610c8a57610c89610ae4565b5b6000610c9885828601610b05565b925050602083013567ffffffffffffffff811115610cb957610cb8610ae9565b5b610cc585828601610c45565b9150509250929050565b600073ffffffffffffffffffffffffffffffffffffffff82169050919050565b6000610cfa82610ccf565b9050919050565b610d0a81610cef565b82525050565b6000602082019050610d256000830184610d01565b92915050565b600060208284031215610d4157610d40610ae4565b5b6000610d4f84828501610b05565b91505092915050565b6000604082019050610d6d6000830185610d01565b610d7a6020830184610d01565b9392505050565b6000819050919050565b610d9481610d81565b82525050565b600067ffffffffffffffff82169050919050565b610db781610d9a565b82525050565b600061ffff82169050919050565b610dd481610dbd565b82525050565b600063ffffffff82169050919050565b610df381610dda565b82525050565b600060a082019050610e0e6000830188610d8b565b610e1b6020830187610dae565b610e286040830186610dcb565b610e356060830185610dea565b610e426080830184610dea565b9695505050505050565b600081519050610e5b81610aee565b92915050565b600060208284031215610e7757610e76610ae4565b5b6000610e8584828501610e4c565b91505092915050565b7f4e487b7100000000000000000000000000000000000000000000000000000000600052603260045260246000fd5b7f4e487b7100000000000000000000000000000000000000000000000000000000600052601260045260246000fd5b6000610ef782610a14565b9150610f0283610a14565b925082610f1257610f11610ebd565b5b828206905092915050565b600081905092915050565b50565b6000610f38600083610f1d565b9150610f4382610f28565b600082019050919050565b6000610f5982610f2b565b915081905091905056fea2646970667358221220beff9cc3c1885e633d66b911270c7f0356e8f0225dbe8d9cc3be2e976f1923dd64736f6c63430008120033",
  "devdoc": {
    "author": "Patrick Collins",
    "details": "This implements the Chainlink VRF Version 2",
    "kind": "dev",
    "methods": {},
    "title": "A sample Raffle Contract",
    "version": 1
  },
  "userdoc": {
    "kind": "user",
    "methods": {
      "getRaffleState()": {
        "notice": "Getter Functions "
      }
    },
    "notice": "This contract is for creating a sample raffle contract",
    "version": 1
  },
  "storageLayout": {
    "storage": [
      {
        "astId": 217,
        "contract": "contracts/Raffle.sol:Raffle",
        "label": "s_lastTimeStamp",
        "offset": 0,
        "slot": "0",
        "type": "t_uint256"
      },
      {
        "astId": 219,
        "contract": "contracts/Raffle.sol:Raffle",
        "label": "s_recentWinner",
        "offset": 0,
        "slot": "1",
        "type": "t_address"
      },
      {
        "astId": 222,
        "contract": "contracts/Raffle.sol:Raffle",
        "label": "s_players",
        "offset": 0,
        "slot": "2",
        "type": "t_array(t_address_payable)dyn_storage"
      },
      {
        "astId": 225,
        "contract": "contracts/Raffle.sol:Raffle",
        "label": "s_raffleState",
        "offset": 0,
        "slot": "3",
        "type": "t_enum(RaffleState)198"
      },
      {
        "astId": 227,
        "contract": "contracts/Raffle.sol:Raffle",
        "label": "randomNumber",
        "offset": 0,
        "slot": "4",
        "type": "t_uint256"
      }
    ],
    "types": {
      "t_address": {
        "encoding": "inplace",
        "label": "address",
        "numberOfBytes": "20"
      },
      "t_address_payable": {
        "encoding": "inplace",
        "label": "address payable",
        "numberOfBytes": "20"
      },
      "t_array(t_address_payable)dyn_storage": {
        "base": "t_address_payable",
        "encoding": "dynamic_array",
        "label": "address payable[]",
        "numberOfBytes": "32"
      },
      "t_enum(RaffleState)198": {
        "encoding": "inplace",
        "label": "enum Raffle.RaffleState",
        "numberOfBytes": "1"
      },
      "t_uint256": {
        "encoding": "inplace",
        "label": "uint256",
        "numberOfBytes": "32"
      }
    }
  }
}